:0400000007EF00F016
:100008005982BAED11F0E3EF10F00001EA6B000E2F
:10001800D36F010ED26F20042110D8A401D122C0C1
:1000280001F023C002F0000E046E0A0E036EEBEC22
:100038000FF00150096E000E7EEC12F00001EA2B61
:1000480022C001F023C002F0000E046E0A0E036EF7
:100058001AEC11F00150096E0001EA517EEC12F021
:100068000001EA2B24C001F025C002F0000E046E46
:100078000A0E036EEBEC0FF00150096E0001EA5115
:100088007EEC12F00001EA2B24C001F025C002F03A
:10009800000E046E0A0E036E1AEC11F00150096E80
:1000A8000001EA517EEC12F00001EA2B26C009F0AB
:1000B800EA517EEC12F00001EA2B010EC8EC12F0B6
:1000C800286E000EC8EC12F0296E29500A0DF3CFE5
:1000D8002AF0F4CF2BF028502A240001DA6F000E02
:1000E8002B20DB6F030EC8EC12F0286E020EC8EC52
:1000F80012F0296E29500A0DF3CF2AF0F4CF2BF015
:1001080028502A240001DC6F000E2B20DD6F040E1E
:10011800C8EC12F0DAC001F0DBC002F0000E046E89
:100128000A0E036EEBEC0FF00150300F0001BE6FAA
:10013800DAC001F0DBC002F0000E046E0A0E036E96
:100148001AEC11F00150300F0001BF6F3A0EC06F6A
:10015800DCC001F0DDC002F0000E046E0A0E036E72
:10016800EBEC0FF00150300F0001C16FDCC001F063
:10017800DDC002F0000E046E0A0E036E1AEC11F0D8
:100188000150300F0001C26F200EC36F500EC46FB4
:100198004D0EC56FC66BE40E096E2E0E0A6E095021
:1001A8000A10D8A4000E0B6E800E0C6E86EC11F0AF
:1001B800E40E096E2E0E0A6E09500A10D8A4000E1D
:1001C8000B6EC00E0C6E86EC11F0C10E096E2E0E71
:1001D8000A6E09500A10D8A4000E0B6E800E0C6E21
:1001E80086EC11F0BE0E096E0A6A0950D8A4200EDA
:1001F8000B6EC00E0C6E86EC11F0000E0001E36F62
:10020800000EE26FE3BF06D0880EE25D130EE359DD
:10021800D8B003D0E24BE32BF5D7040EF96F1200E8
:10022800000EE96F000EE86FB5D0E851050DF3CF69
:10023800EAF0EA51040FC8EC12F0286E28500001C9
:10024800D46FD56BEA29C8EC12F0286E0001EA5188
:10025800C8EC12F0296E29500A0DF3CF2AF0F4CF1A
:100268002BF028502A240001D66F000E2B20D76FC0
:10027800EA51030FC8EC12F0286E0001EA51020F90
:10028800C8EC12F0296E29500A0DF3CF2AF0F4CFEA
:100298002BF028502A240001D86F000E2B20D96F8C
:1002A8002650D45DD551800A286E2750800A2858D8
:1002B800D8A06ED0D451265C2750800A286ED5511C
:1002C800800A2858D8B00ED0E8C00DF0E9C00EF06A
:1002D800EAC00FF0106A20C011F021C012F05EECE5
:1002E8000FF062D02250D65DD751800A286E235075
:1002F800800A2858D8A04CD0D651225C2350800AB6
:10030800286ED751800A2858D8A0DED72450D85D47
:10031800D951800A286E2550800A2858D8A038D08C
:10032800D851245C2550800A286ED951800A285853
:10033800D8A0CAD7000ED36F000ED26F440E096E34
:100348002F0E0A6E09500A10D8A4000E0B6E800EEC
:100358000C6E86EC11F0150E096E2F0E0A6E095000
:100368000A10D8A4000E0B6EC00E0C6E86EC11F0AD
:10037800000E0001E56F000EE46FE5BF06D0880EA1
:10038800E45D130EE559D8B00FD0E44BE52BF5D753
:10039800E84BE92B2050E85DE951800A286E21508E
:1003A800800A2858D8A041D70001D251D311D8B417
:1003B8001200E851050DF3CFEAF022C001F023C086
:1003C80002F0000E046E0A0E036EEBEC0FF0015003
:1003D800096E0001EA517EEC12F00001EA2B22C0FE
:1003E80001F023C002F0000E046E0A0E036E1AEC30
:1003F80011F00150096E0001EA517EEC12F0000183
:10040800EA2B24C001F025C002F0000E046E0A0E8B
:10041800036EEBEC0FF00150096E0001EA517EEC1F
:1004280012F00001EA2B24C001F025C002F0000EF2
:10043800046E0A0E036E1AEC11F00150096E0001E9
:10044800EA517EEC12F00001EA2B26C009F0EA51CD
:100458007EEC12F00001EA2B250E096E2F0E0A6EB3
:1004680009500A10D8A4000E0B6E800E0C6E86EC94
:1004780011F00001E851050DF3CFEAF0EA29C8ECC4
:1004880012F0286E0001EA51C8EC12F0296E2950CA
:100498000A0DF3CF2AF0F4CF2BF028502A240001BC
:1004A800DE6F000E2B20DF6FEA51030FC8EC12F04D
:1004B800286E0001EA51020FC8EC12F0296E29508B
:1004C8000A0DF3CF2AF0F4CF2BF028502A2400018C
:1004D800E06F000E2B20E16FEA51040FC8EC12F018
:1004E800286E28500001BC6FBD6BDEC001F0DFC074
:1004F80002F0000E046E0A0E036EEBEC0FF00150D2
:10050800300F0001C86FDEC001F0DFC002F0000E3E
:10051800046E0A0E036E1AEC11F00150300F000140
:10052800C96F3A0ECA6FE0C001F0E1C002F0000ED8
:10053800046E0A0E036EEBEC0FF00150300F000151
:10054800CB6FE0C001F0E1C002F0000E046E0A0EAD
:10055800036E1AEC11F00150300F0001CC6F200E21
:10056800CD6F500ECE6F4D0ECF6FD06BE40E096E6F
:100578002E0E0A6E09500A10D8A4000E0B6E800EBB
:100588000C6E86EC11F0E40E096E2E0E0A6E095000
:100598000A10D8A4000E0B6EC00E0C6E86EC11F07B
:1005A800C10E096E2E0E0A6E09500A10D8A4000E4C
:1005B8000B6E800E0C6E86EC11F0C80E096E0A6A7E
:1005C8000950D8A4200E0B6EC00E0C6E86EC11F0EC
:1005D800000E0001E76F000EE66FE7BF06D0880E39
:1005E800E65D130EE759D8B01200E64BE72BF5D7B6
:1005F800116E5350D8A41CD0E40E096E2E0E0A6E4C
:1006080009500A10D8A4000E0B6E800E0C6E86ECF2
:1006180011F0E40E096E2E0E0A6E09500A10D8A4C5
:10062800000E0B6EC00E0C6E86EC11F0010E536EB0
:1006380051EC11F0A7EC10F03B506AE1060E3A5C61
:10064800D8B066D0CC0E096E2F0E0A6E09500A106B
:10065800D8A4000E0B6E800E0C6E86EC11F0A80E5E
:10066800096E0A6A0950D8A4200E0B6E850E0C6E0E
:1006780086EC11F03250020DF350E90FD96EDA6AA8
:10068800DECF0DF0DDCF0EF00DC009F00EC00AF080
:1006980009500A10D8A4000E0B6E8D0E0C6E86EC55
:1006A80011F0C60E096E2F0E0A6E09500A10D8A452
:1006B800000E0B6EC00E0C6E86EC11F0B10E096EBA
:1006C8000A6A0950D8A4200E0B6EC50E0C6E86EC73
:1006D80011F05150D8A40ED0E30E096E2F0E0A6EF9
:1006E80009500A10D8A4000E0B6ECD0E0C6E86ECC5
:1006F80011F066D1E70E096E2F0E0A6E09500A1026
:10070800D8A4000E0B6ECD0E0C6E86EC11F058D1ED
:100718003B5004E1060E3A5CD8A048D13B5003E1B7
:10072800080E3A5CD8B042D1C60E096E2F0E0A6E7A
:1007380009500A10D8A4000E0B6E800E0C6E86ECC1
:1007480011F0B10E096E0A6A0950D8A4200E0B6E7A
:10075800850E0C6E86EC11F05150D8A40ED0E30E25
:10076800096E2F0E0A6E09500A10D8A4000E0B6EDF
:100778008D0E0C6E86EC11F00DD0E70E096E2F0E63
:100788000A6E09500A10D8A4000E0B6E8D0E0C6E5E
:1007980086EC11F0BF0E096E2F0E0A6E09500A1072
:1007A800D8A4000E0B6EC00E0C6E86EC11F05650DD
:1007B800D8A40ED07B0E096E2F0E0A6E09500A10AF
:1007C800D8A4000E0B6EC60E0C6E86EC11F0F8D095
:1007D8005650D8B4F5D058EC0CF000018351050DF3
:1007E800F3CF4FF04F28C8EC12F00D6E4F50C8EC05
:1007F80012F00E6E0E500A0DF3CF0FF0F4CF10F07A
:100808000D500F240001816F000E1020826F4F5091
:10081800030FC8EC12F00D6E4F50020FC8EC12F027
:100828000E6E0E500A0DF3CF0FF0F4CF10F00D50EE
:100838000F2400017F6F000E1020806F4F50040FAF
:10084800C8EC12F00D6E0D5000017D6F7E6B81C0FB
:1008580001F082C002F0000E046E0A0E036EEBEC8B
:100868000FF0300E0126000E022201C00DF002C06A
:100878000EF00F6A0DC009F00EC00AF00FC00BF0A1
:10088800C60E0C6E86EC11F081C001F082C002F039
:10089800000E046E0A0E036E1AEC11F0300E0126DB
:1008A800000E022201C00DF002C00EF00F6A0DC04A
:1008B80009F00EC00AF00FC00BF0C70E0C6E86ECE4
:1008C80011F0FB0E096E2F0E0A6E09500A10D8A4FB
:1008D800000E0B6EC80E0C6E86EC11F07FC001F096
:1008E80080C002F0000E046E0A0E036EEBEC0FF0EF
:1008F800300E0126000E022201C00DF002C00EF0DB
:100908000F6A0DC009F00EC00AF00FC00BF0C90E37
:100918000C6E86EC11F07FC001F080C002F0000E72
:10092800046E0A0E036E1AEC11F0300E0126000E4A
:10093800022201C00DF002C00EF00F6A0DC009F0CE
:100948000EC00AF00FC00BF0CA0E0C6E86EC11F048
:10095800F30E096E2E0E0A6E09500A10D8A4000E66
:100968000B6ECB0E0C6E86EC11F000017D517E11E2
:10097800D8B40ED0E80E096E2F0E0A6E09500A1070
:10098800D8A4000E0B6ECC0E0C6E86EC11F018D0AD
:10099800E40E096E2F0E0A6E09500A10D8A4000E34
:1009A8000B6ECC0E0C6E86EC11F00AD03B5004E1B5
:1009B800080E3A5CD8A004D0000E3B6E000E3A6ECA
:1009C80000018151381816E182513918D8A412D083
:1009D8007F5136180FE180513718D8A40BD07D51BC
:1009E800341808E17E513518D8A404D08180010E4E
:1009F800506E1CD05004D8A418D0522A040E526449
:100A080012D0506A834B842B83C001F084C002F05B
:100A180056C003F0046A1AEC11F001C083F002C05A
:100A280084F0526A03D0818001D08190040E11189D
:100A3800D8A41200020E0001F96F12005650D8A473
:100A48001BD0520E096E2F0E0A6E09500A10D8A438
:100A5800000E0B6E800E0C6E86EC11F06E0E096E99
:100A68002F0E0A6E09500A10D8A4000E0B6EC00E85
:100A78000C6E86EC11F0D8D15350D8A467D1546AC3
:100A8800000E1A6E000E196E52D15450C8EC12F0B6
:100A98000F6E5450C8EC12F0106E10500A0DF3CFC0
:100AA80011F0F4CF12F00F501124156E000E122021
:100AB800166E542A542A5450C8EC12F00F6E545033
:100AC800C8EC12F0106E10500A0DF3CF11F0F4CFED
:100AD80012F00F501124176E000E1220186E542AAF
:100AE800542A5450C8EC12F00F6E0F50136E146A4B
:100AF800542A090E1902F3CF0FF0F4CF10F01A029E
:100B0800F3501026FA0E0F24D96E000E1020DA6E5C
:100B180015C001F016C002F0000E046E0A0E036E36
:100B2800EBEC0FF00150300FDF6E090E1902F3CF16
:100B38000FF0F4CF10F01A02F3501026FB0E0F241A
:100B4800D96E000E1020DA6E15C001F016C002F042
:100B5800000E046E0A0E036E1AEC11F00150300FED
:100B6800DF6E090E1902F3CF0FF0F4CF10F01A025E
:100B7800F3501026FC0E0F24D96E000E1020DA6EEA
:100B88003A0EDF6E090E1902F3CF0FF0F4CF10F012
:100B98001A02F3501026FD0E0F24D96E000E1020F5
:100BA800DA6E17C001F018C002F0000E046E0A0ECB
:100BB800036EEBEC0FF00150300FDF6E090E1902D7
:100BC800F3CF0FF0F4CF10F01A02F3501026FE0EF8
:100BD8000F24D96E000E1020DA6E17C001F018C06D
:100BE80002F0000E046E0A0E036E1AEC11F00150AA
:100BF800300FDF6E090E1902F3CF0FF0F4CF10F0AB
:100C08001A02F3501026FF0E0F24D96E000E102082
:100C1800DA6E200EDF6E13501410D8B411D0090EFE
:100C28001902F3CF0FF0F4CF10F01A02F350102688
:100C3800000E0F24D96E010E1020DA6E500E10D05F
:100C4800090E1902F3CF0FF0F4CF10F01A02F35087
:100C58001026000E0F24D96E010E1020DA6E410EF8
:100C6800DF6E090E1902F3CF0FF0F4CF10F01A025D
:100C7800F3501026010E0F24D96E010E1020DA6EE3
:100C88004D0EDF6E090E1902F3CF0FF0F4CF10F0FE
:100C98001A02F3501026020E0F24D96E010E1020EE
:100CA800DA6EDF6AE40E096E2E0E0A6E09500A101B
:100CB800D8A4000E0B6E800E0C6E86EC11F0E40EBC
:100CC800096E2E0E0A6E09500A10D8A4000E0B6E7B
:100CD800C00E0C6E86EC11F0AE0E096E2E0E0A6E6A
:100CE80009500A10D8A4000E0B6E800E0C6E86EC0C
:100CF80011F0090E1902F3CF0FF0F4CF10F01A0219
:100D0800F3501026FA0E0F24116E000E1020126EEA
:100D180011C009F012C00AF009500A10D8A4200E18
:100D28000B6EC00E0C6E86EC11F0194A1A2A56503A
:100D38000F6E106A0F50195C1A50800A116E10500D
:100D4800800A1158D8A0A1D6010E536E5550310F04
:100D58000001BA6FBB6BE40E096E2E0E0A6E0950C5
:100D68000A10D8A4000E0B6E800E0C6E86EC11F0E3
:100D7800E40E096E2E0E0A6E09500A10D8A4000E51
:100D88000B6EC00E0C6E86EC11F09A0E096E2E0ECC
:100D98000A6E09500A10D8A4000E0B6E800E0C6E55
:100DA80086EC11F0BA0E096E0A6A0950D8A4200E12
:100DB8000B6EC00E0C6E86EC11F0F30E096E2E0E43
:100DC8000A6E09500A10D8A4000E0B6EC10E0C6EE4
:100DD80086EC11F05550090DFA0EF3240F6E000E33
:100DE800F420106E0FC009F010C00AF009500A1064
:100DF800D8A4200E0B6EC20E0C6E86EC11F0020EFB
:100E08005818D8A407D0552A5650555CD8A00CD0ED
:100E1800556A0AD05804D8A407D05550D8A403D08E
:100E28005604556E01D05506050E5818D8A4120060
:100E380025EC12F0020E0001F96F546A536A120091
:100E48007B517C11D8A43AD051EC11F0B1510A0D64
:100E5800F350B225F00F426EB4510A0DF350B52588
:100E6800F00F416EB7510A0DF350B825F00F406EE0
:100E78005150D8A40ED0E30E096E2F0E0A6E0950F9
:100E88000A10D8A4000E0B6ECD0E0C6E86EC11F075
:100E980010D05104D8A40DD0E70E096E2F0E0A6E9B
:100EA80009500A10D8A4000E0B6ECD0E0C6E86ECFD
:100EB80011F0000E00017C6F010E7B6F0A0E016EAF
:100EC800425062EC12F0300F00018D6F0A0E016E75
:100ED8004250DDEC12F0300F00018E6F3A0E8F6F2A
:100EE8000A0E016E415062EC12F0300F0001906F53
:100EF8000A0E016E4150DDEC12F0300F0001916FC7
:100F08003A0E926F0A0E016E405062EC12F0300FEA
:100F18000001936F0A0E016E4050DDEC12F0300FA5
:100F28000001946F956BD30E096E2E0E0A6E095050
:100F38000A10D8A4000E0B6E800E0C6E86EC11F011
:100F4800F00E096E2E0E0A6E09500A10D8A4000E73
:100F58000B6EC00E0C6E86EC11F08D0E096E0A6ACF
:100F68000950D8A4200E0B6EC40E0C6E86EC11F03E
:100F78005150D8A40ED0E30E096E2F0E0A6E0950F8
:100F88000A10D8A4000E0B6ECD0E0C6E86EC11F074
:100F980010D05104D8A40DD0E70E096E2F0E0A6E9A
:100FA80009500A10D8A4000E0B6ECD0E0C6E86ECFC
:100FB80011F05804D8A405D0000E0001786F010E76
:100FC800776F0001794B7A2B960E79197A11D8A48C
:100FD8000DD030503110D8A402D0010E01D0000E2F
:100FE800306E316A000E7A6F000E796F020E581853
:100FF800D8A40BD02E4A2F2A040E2E182F10D8A4AE
:1010080004D0000E2F6E000E2E6E77517811D8B4D2
:1010180035D02E502F10D8A408D05150D8A402D0C3
:10102800010E01D0000E516E25D02E042F10D8A429
:1010380008D0402A3D0E4018D8A41CD0010E406E9E
:1010480019D0020E2E182F10D8A408D0412A3D0E10
:101058004118D8A40FD0010E416E0CD0030E2E18E3
:101068002F10D8A407D0422A0D0E4218D8A402D0B7
:10107800010E426E000E786F000E776F30503110FF
:10108800D8B43DD02E502F10D8A40BD0CE0E036E5E
:10109800200E24EC13F0CF0E036E200E24EC13F078
:1010A8002ED02E042F10D8A40BD0CA0E036E200EFB
:1010B80024EC13F0CB0E036E200E24EC13F01FD09B
:1010C800020E2E182F10D8A40BD0C70E036E200EB8
:1010D80024EC13F0C80E036E200E24EC13F00FD08E
:1010E800030E2E182F10D8A40AD0C40E036E200E9B
:1010F80024EC13F0C50E036E200E24EC13F0040E3E
:101108005818D8A473D051C00DF0050E0E6ED890A3
:101118000D360E2EFCD70A0E016E4250DDEC12F091
:101128000F6E0A0E016E425062EC12F0106E10380B
:10113800F00B0F100D1040094C6E0A0E016E415055
:10114800DDEC12F00D6E0A0E016E415062EC12F0E9
:101158000E6E0E38F00B0D103F6E0A0E016E4050E9
:10116800DDEC12F00D6E0A0E016E405062EC12F0CA
:101178000E6E0E38F00B0D103E6E4CC002F0020ED3
:1011880015EC13F03FC002F0010E15EC13F03EC051
:1011980002F0000E15EC13F0E40E096E2E0E0A6E26
:1011A80009500A10D8A4000E0B6E800E0C6E86EC47
:1011B80011F0E40E096E2E0E0A6E09500A10D8A41A
:1011C800000E0B6EC00E0C6E86EC11F0F50E096E5B
:1011D8002E0E0A6E09500A10D8A4000E0B6EC10E0E
:1011E8000C6E86EC11F0030E0001F96F050E58180D
:1011F800D8A41200030E0001F96F12007B517C1174
:10120800D8A416D0A8510A0DF350A925F00F4A6E9C
:10121800AB510A0DF350AC25F00F496EAE510A0DD3
:10122800F350AF25F00F486E000E7C6F010E7B6FF8
:101238000A0E016E4A5062EC12F0300F0001966FF0
:101248000A0E016E4A50DDEC12F0300F0001976F64
:101258002D0E986F0A0E016E495062EC12F0300F95
:101268000001996F0A0E016E4950DDEC12F0300F43
:1012780000019A6F2D0E9B6F0A0E016E485062ECAA
:1012880012F0300F00019C6F0A0E016E4850DDEC21
:1012980012F0300F00019D6F9E6B5D0E096E2E0ED1
:1012A8000A6E09500A10D8A4000E0B6E800E0C6E40
:1012B80086EC11F0F00E096E2E0E0A6E09500A1017
:1012C800D8A4000E0B6EC00E0C6E86EC11F0960EB4
:1012D800096E0A6A0950D8A4200E0B6EC10E0C6E56
:1012E80086EC11F03250020DF350E90FD96EDA6A2C
:1012F800DECF0DF0DDCF0EF00DC009F00EC00AF004
:1013080009500A10D8A4000E0B6ECA0E0C6E86EC9B
:1013180011F05804D8A405D0000E0001786F010E12
:10132800776F0001794B7A2B960E79197A11D8A428
:101338000DD030503110D8A402D0010E01D0000ECB
:10134800306E316A000E7A6F000E796F020E5818EF
:10135800D8A40AD0010E2E240D6E000E2F200E6E7A
:10136800030E0D142E6E2F6A77517811D8B446D01B
:101378002E502F10D8A40CD0324A332A080E321817
:101388003310D8A436D0000E336E000E326E31D032
:101398002E042F10D8A414D0482A640E4818D8B4A4
:1013A800486A010E4824016E026A000E0222000EED
:1013B800046E630E036E1AEC11F00150486E19D0DA
:1013C800020E2E182F10D8A408D0492A0D0E49183D
:1013D800D8A40FD0010E496E0CD0030E2E182F1072
:1013E800D8A407D04A2A200E4A18D8A402D0010E41
:1013F8004A6E000E0001786F000E776F3050311082
:10140800D8B43DD02E502F10D8A40BD0CA0E036EDE
:10141800200E24EC13F0CB0E036E200E24EC13F0F8
:101428002ED02E042F10D8A40BD0C70E036E200E7A
:1014380024EC13F0C80E036E200E24EC13F01FD01A
:10144800020E2E182F10D8A40BD0C40E036E200E37
:1014580024EC13F0C50E036E200E24EC13F00FD00D
:10146800030E2E182F10D8A40AD0C20E036E200E19
:1014780024EC13F0C10E036E200E24EC13F0040EBE
:101488005818D8A470D00A0E016E4A50DDEC12F03C
:101498000D6E0A0E016E4A5062EC12F00E6E0E3896
:1014A800F00B0D10476E0A0E016E4850DDEC12F07D
:1014B8000D6E0A0E016E485062EC12F00E6E0E3878
:1014C800F00B0D10456E0A0E016E4950DDEC12F05E
:1014D8000D6E0A0E016E495062EC12F00E6E0E3857
:1014E800F00B0D10466E32C044F047C002F0040EF7
:1014F80015EC13F046C002F0050E15EC13F045C0CC
:1015080002F0060E15EC13F044C002F0030E15ECC1
:1015180013F0E40E096E2E0E0A6E09500A10D8A4B4
:10152800000E0B6E800E0C6E86EC11F0E40E096E48
:101538002E0E0A6E09500A10D8A4000E0B6EC00EAB
:101548000C6E86EC11F0050E096E2F0E0A6E09500E
:101558000A10D8A4000E0B6EC10E0C6E86EC11F0AA
:10156800030E0001F96F050E5818D8A41200030ED7
:101578000001F96F12007B517C11D8A44FD051ECB7
:1015880011F0E40E096E2E0E0A6E09500A10D8A446
:10159800000E0B6E800E0C6E86EC11F0E40E096ED8
:1015A8002E0E0A6E09500A10D8A4000E0B6EC00E3B
:1015B8000C6E86EC11F00001B1510A0DF350B22502
:1015C800F00F4E6EB4510A0DF350B525F00F4D6E65
:1015D8005150D8A40ED0E30E096E2F0E0A6E095092
:1015E8000A10D8A4000E0B6ECD0E0C6E86EC11F00E
:1015F80010D05104D8A40DD0E70E096E2F0E0A6E34
:1016080009500A10D8A4000E0B6ECD0E0C6E86EC95
:1016180011F0000E00017C6F010E7B6F0A0E016E47
:101628004E5062EC12F0300F00019F6F0A0E016EEF
:101638004E50DDEC12F0300F0001A06F3A0EA16F92
:101648000A0E016E4D5062EC12F0300F0001A26FCD
:101658000A0E016E4D50DDEC12F0300F0001A36F41
:10166800200EA46F5150D8B402D0500E01D0410EB4
:10167800A56F4D0EA66FA76B720E096E2E0E0A6E21
:1016880009500A10D8A4000E0B6E800E0C6E86EC62
:1016980011F0F00E096E2E0E0A6E09500A10D8A429
:1016A800000E0B6EC00E0C6E86EC11F09F0E096ECC
:1016B8000A6A0950D8A4200E0B6EC40E0C6E86EC74
:1016C80011F0F00E096E2E0E0A6E09500A10D8A4F9
:1016D800000E0B6ECC0E0C6E86EC11F05804D8A4DC
:1016E80005D0000E0001786F010E776F0001794B6D
:1016F8007A2B960E79197A11D8A40DD03050311062
:10170800D8A402D0010E01D0000E306E316A000E4E
:101718007A6F000E796F020E5818D8A410D0010EF7
:101728002E24016E000E2F20026E000E046E030E92
:10173800036E04EC12F001C02EF002C02FF07751B6
:101748007811D8B437D02E502F10D8A408D05150C3
:10175800D8A402D0010E01D0000E516E26D02E045E
:101768002F10D8A40FD0010E4D24016E026A000E6E
:101778000222000E046E3C0E036E1AEC11F00150AA
:101788004D6E13D0020E2E182F10D8A40ED0010EB5
:101798004E24016E026A000E0222000E046E0C0E28
:1017A800036E1AEC11F001504E6E000E0001786FB6
:1017B800000E776F30503110D8B42DD02E502F1026
:1017C800D8A40BD0CA0E036E200E24EC13F0CB0E57
:1017D800036E200E24EC13F01ED02E042F10D8A474
:1017E8000BD0C70E036E200E24EC13F0C80E036E48
:1017F800200E24EC13F00FD0020E2E182F10D8A4B0
:101808000AD0C40E036E200E24EC13F0C50E036E2E
:10181800200E24EC13F0040E5818D8A43DD0280E3E
:10182800566012D0562A56C020F0216A4EC022F0C7
:10183800236A4DC024F0256A51C026F0276A09ECB6
:1018480000F0040EF96F28D0E40E096E2E0E0A6E11
:1018580009500A10D8A4000E0B6E800E0C6E86EC90
:1018680011F0860E096E2E0E0A6E09500A10D8A4C1
:10187800000E0B6EC00E0C6E86EC11F0000E2D6E75
:10188800000E2C6E2C4A2D2A2DBEFCD7880E2C5CFF
:10189800130E2D58D8A0F6D7050E5818D8A4120044
:1018A800040E0001F96F12000001B1510A0DF3CFC7
:1018B80007F0F4CF08F0B2510726000E0822F00E08
:1018C8000724386EFD0E0820396EB4510A0DF3CF87
:1018D80007F0F4CF08F0B5510726000E0822F00EE5
:1018E8000724366EFD0E0820376E6CC007F0050E13
:1018F800086ED8900732082EFCD707A004D0000E37
:10190800356E010E03D0000E356E000E346E000EDB
:10191800846F000E836F4F6A000E0C6E000E0B6E04
:10192800AED00B50050DF3CF4FF04F28C8EC12F096
:10193800076E4F50C8EC12F0086E08500A0DF3CF2E
:1019480009F0F4CF0AF0075009240001896F000E4E
:101958000A208A6F4F50030FC8EC12F0076E4F50E1
:10196800020FC8EC12F0086E08500A0DF3CF09F008
:10197800F4CF0AF0075009240001876F000E0A20EF
:10198800886F4F50040FC8EC12F0076E0750000123
:10199800856F866B3450855D8651800A076E355099
:1019A800800A0758D8A069D08551345C3550800A20
:1019B800076E8651800A0758D8B005D00BC083F04F
:1019C8000CC084F0120089C001F08AC002F0000E39
:1019D800046E0C0E036E1AEC11F001C007F002C081
:1019E80008F038C001F039C002F0000E046E0C0E89
:1019F800036E1AEC11F00150075C0850800A096E5A
:101A08000250800A0958D8A038D038C001F039C02F
:101A180002F0000E046E0C0E036E1AEC11F001C0F9
:101A280007F002C008F089C001F08AC002F0000E79
:101A3800046E0C0E036E1AEC11F00150075C08508E
:101A4800800A096E0250800A0958D8A0B7D73650C4
:101A58000001875D8851800A076E3750800A075851
:101A6800D8A00BD08751365C3750800A076E885152
:101A7800800A0758D8B01200A1D70B4A0C2A565032
:101A8800076E086A07500B5C0C50800A096E0850F4
:101A9800800A0958D8B0120044D7020E5818D8A4A2
:101AA80004D0000E706F000E06D05804D8A404D0DD
:101AB800000E706F010E6F6F6F517011D8A442D075
:101AC800E40E096E2E0E0A6E09500A10D8A4000EF4
:101AD8000B6E800E0C6E86EC11F0E40E096E2E0E65
:101AE8000A6E09500A10D8A4000E0B6EC00E0C6EB8
:101AF80086EC11F0FD0E096E2F0E0A6E09500A10C1
:101B0800D8A4000E0B6E800E0C6E86EC11F0910EB0
:101B1800096E2F0E0A6E09500A10D8A4000E0B6E1B
:101B2800820E0C6E86EC11F0390E096E2F0E0A6EBD
:101B380009500A10D8A4000E0B6EC20E0C6E86EC6B
:101B480011F045D06F517011D8B441D0E40E096E30
:101B58002E0E0A6E09500A10D8A4000E0B6E800EC5
:101B68000C6E86EC11F0E40E096E2E0E0A6E09500A
:101B78000A10D8A4000E0B6EC00E0C6E86EC11F085
:101B8800910E096E2F0E0A6E09500A10D8A4000E85
:101B98000B6E820E0C6E86EC11F0FD0E096E2F0E88
:101BA8000A6E09500A10D8A4000E0B6EC00E0C6EF7
:101BB80086EC11F0870E096E2F0E0A6E09500A1076
:101BC800D8A4000E0B6EC20E0C6E86EC11F0040E3B
:101BD8005818D8A409D000016F517011D8A402D0A8
:101BE800070E01D0080EF96F050E5818D8A4120078
:101BF800020E0001F96F1200020E5818D8A404D082
:101C0800000E766F010E06D05804D8A404D0000E3A
:101C1800766F000E756F75517611D8A442D0E40E18
:101C2800096E2E0E0A6E09500A10D8A4000E0B6E0B
:101C3800800E0C6E86EC11F0E40E096E2E0E0A6E04
:101C480009500A10D8A4000E0B6EC00E0C6E86EC5C
:101C580011F0FD0E096E2F0E0A6E09500A10D8A455
:101C6800000E0B6E800E0C6E86EC11F0A50E096E40
:101C78002F0E0A6E09500A10D8A4000E0B6E820EA1
:101C88000C6E86EC11F0AE0E096E2F0E0A6E09501E
:101C98000A10D8A4000E0B6EC20E0C6E86EC11F062
:101CA80045D075517611D8B441D0E40E096E2E0E88
:101CB8000A6E09500A10D8A4000E0B6E800E0C6E26
:101CC80086EC11F0E40E096E2E0E0A6E09500A1009
:101CD800D8A4000E0B6EC00E0C6E86EC11F0A50E8B
:101CE800096E2F0E0A6E09500A10D8A4000E0B6E4A
:101CF800820E0C6E86EC11F0FD0E096E2F0E0A6E28
:101D080009500A10D8A4000E0B6EC00E0C6E86EC9B
:101D180011F0AE0E096E2F0E0A6E09500A10D8A4E3
:101D2800000E0B6EC20E0C6E86EC11F0040E5818E5
:101D3800D8A409D0000175517611D8B402D0060E86
:101D480001D0050EF96F050E5818D8A41200020E1E
:101D58000001F96F1200020E5818D8A404D0000E22
:101D68003D6E010E06D05804D8A404D0000E3D6E76
:101D7800000E3C6E3C503D10D8A442D0E40E096ED3
:101D88002E0E0A6E09500A10D8A4000E0B6E800E93
:101D98000C6E86EC11F0E40E096E2E0E0A6E0950D8
:101DA8000A10D8A4000E0B6EC00E0C6E86EC11F053
:101DB800FD0E096E2F0E0A6E09500A10D8A4000EE7
:101DC8000B6E800E0C6E86EC11F0600E096E2F0EF5
:101DD8000A6E09500A10D8A4000E0B6E820E0C6E03
:101DE80086EC11F0350E096E2F0E0A6E09500A1096
:101DF800D8A4000E0B6EC20E0C6E86EC11F045D006
:101E08003C503D10D8B441D0E40E096E2E0E0A6E37
:101E180009500A10D8A4000E0B6E800E0C6E86ECCA
:101E280011F0E40E096E2E0E0A6E09500A10D8A49D
:101E3800000E0B6EC00E0C6E86EC11F0600E096E73
:101E48002F0E0A6E09500A10D8A4000E0B6E820ECF
:101E58000C6E86EC11F0FD0E096E2F0E0A6E0950FD
:101E68000A10D8A4000E0B6EC00E0C6E86EC11F092
:101E7800350E096E2F0E0A6E09500A10D8A4000EEE
:101E88000B6EC20E0C6E86EC11F0040E5818D8A416
:101E980009D03C503D10D8B402D0040E01D0030E36
:101EA8000001F96F050E5818D8A41200010E0001A0
:101EB800F96F120011C01DF012C01EF07DD01D0474
:101EC800050DF3CF1FF01F28C8EC12F0136E1F503A
:101ED800C8EC12F0146E14500A0DF3CF15F0F4CFBD
:101EE80016F013501524196E000E16201A6E1F5086
:101EF800030FC8EC12F0136E1F50020FC8EC12F05B
:101F0800146E14500A0DF3CF15F0F4CF16F01350D9
:101F180015241B6E000E16201C6E1F50040FC8ECF3
:101F280012F0136E1350176E186A19C001F01AC018
:101F380002F0000E046E0A0E036EEBEC0FF0015077
:101F4800096E1F507EEC12F019C001F01AC002F0A1
:101F5800000E046E0A0E036E1AEC11F00150096EA1
:101F68001F287EEC12F01BC001F01CC002F0000E0E
:101F7800046E0A0E036EEBEC0FF00150096E1F5051
:101F8800020F7EEC12F01BC001F01CC002F0000E24
:101F9800046E0A0E036E1AEC11F00150096E1F5000
:101FA800030F7EEC12F017C009F01F50040F7EECEF
:101FB80012F01D06D8A01E061D500D5C0E50800A9A
:101FC800136E1E50800A1358D8B0120078D7066ACC
:101FD80004AE06D0036C041ED8B0042A010E066EA7
:101FE80002AE06D0016C021ED8B0022A010E061AF3
:101FF800000E086E000E076E03500410D8B41CD0F3
:10200800010E056E04D0D89003360436052A04AEB6
:10201800FAD7D890073608360350015C04500258A6
:10202800D8A005D00350015E0450025A0780D8900A
:1020380004320332052EEDD70650D8B404D0076C0D
:10204800081ED8B0082A07C001F008C002F0120024
:1020580005EC13F0010E44EC12F0586E0001F9057E
:10206800D8A404D05850FCEC02F0F4D7020EF919A9
:10207800D8A403D0AFEC0EF0EDD7030EF919D8A40D
:1020880003D000EC0EF0E6D7040EF919D8A403D05B
:1020980051EC0DF0DFD7050EF919D8A403D024ECC4
:1020A80007F0D8D7060EF919D8A403D002EC09F026
:1020B800D1D7070EF919D8A403D0BFEC0AF0CAD7B4
:1020C800080EF919D8A4C6D722EC05F0C3D7819A0F
:1020D800818C818E81B202D0010E120081B402D0AF
:1020E800040E120081B602D0070E120081B802D089
:1020F8000A0E1200818A819C818E81B202D0020E62
:10210800120081B402D0050E120081B602D0080E6A
:10211800120081B802D00B0E1200818A818C819E38
:10212800819E81B202D0030E120081B402D0060E45
:10213800120081B602D0090E120081B802D00C0E2E
:102148001200FF0E1200040EB3EC12F00001686FCB
:10215800050EB3EC12F00001696F060EB3EC12F035
:1021680000016A6F030EB3EC12F000016B6F68395F
:102178000F0B0F0B300FA86F68510F0B300FA96FA3
:102188002D0EAA6F69390F0B010B300FAB6F695118
:102198000F0B300FAC6F2D0EAD6F6A390F0B0F0B95
:1021A800300FAE6F6A510F0B300FAF6FB06B6BC053
:1021B80004F0070E04160450326E336A12009E0EA5
:1021C800F66E260EF76E000EF86E00EEEBF010EECF
:1021D8000EF00900F5CFEEFFE550E150FAE1F20EFE
:1021E800F66E260EF76E000EF86E0900F5CF57F062
:1021F8000900F5CF58F000EEFAF011EE0EF0EE6A95
:10220800E550E150FCE1E250FAE100EE60F05C0ECE
:10221800EE6AE806FDE100EE2EF0290EEE6AE80609
:10222800FDE15990599200012CEF10F0066A02AEB8
:1022380006D0016C021ED8B0022A010E066E04AE4A
:1022480004D0036C041ED8B0042A03500410D8B478
:1022580018D0010E056E04D0D89003360436052A2E
:1022680004AEFAD70350015C04500258D8A004D039
:102278000350015E0450025AD89004320332052EEE
:10228800F1D70650D8B404D0016C021ED8B0022A87
:1022980001C001F002C002F01200020EB3EC12F00D
:1022A80000016C6F010EB3EC12F000016D6F000EAF
:1022B800B3EC12F000016E6F6C390F0B030B300F8B
:1022C800B16F6C510F0B300FB26F3A0EB36F6D399F
:1022D8000F0B0F0B300FB46F6D510F0B300FB56F25
:1022E8003A0EB66F6E390F0B0F0B300FB76F6E517A
:1022F8000F0B300FB86FB96B6C39E842070B010B45
:10230800516E1200000E016E0C50F1EC12F01AD052
:10231800010E016E09C0F6FF0AC0F7FF0BC0F8FFF7
:10232800F8BA03D00800F55005D0F6CFE9FFF7CF8B
:10233800EAFFEF50F1EC12F0010E0926000E0A2216
:10234800000E0B2209C0F6FF0AC0F7FF0BC0F8FF0A
:10235800F8BA03D00800F55005D0F6CFE9FFF7CF5B
:10236800EAFFEF500009D8B41200D2D70600F2A451
:1023780021D0080ED624D66E000ED720D76E0001C5
:10238800714B722B200E711914E14E0E7219D8A4DC
:1023980010D03A4A3B2A3B5004E1080E3A5CD8A0D8
:1023A80004D0000E3B6E000E3A6E000E726F000EE7
:1023B800716FF29459921100000EB3EC12F0046E92
:1023C80004508009026E000E15EC13F0020EB3ECF7
:1023D80012F0046E0450AF0B026E020E15EC13F0EF
:1023E800930E026E070E15EC13F0000EB3EC12F00C
:1023F800046E04507F0B026E000E15EC13F01200F1
:1024080003500410D8B418D0010E056E04D0D8902B
:1024180003360436052A04AEFAD70350015C04508B
:102428000258D8A004D00350015E0450025AD89034
:1024380004320332052EF1D701C001F002C002F0C8
:102448001200000E016E010EF1EC12F0B70E096ECB
:102458002F0E0A6E09500A10D8A4000E0B6E800EBB
:102468000C6E86EC11F0A10E0E6E200E0D6E0D0690
:10247800D8A00E060D28FBE10E28D8B41200F7D715
:10248800016E0104D8A412D06BEC10F0436E4328FF
:10249800D8B406D05750D8B403D0576A4350120066
:1024A8004328D8A409D0010E576E06D00150D8A4ED
:1024B80003D06BEC10F01200FF0E1200026E046ADB
:1024C8000150D8B415D0010E036E03D0D890013650
:1024D800032A01AEFBD7D89004360150025CD8A07D
:1024E80003D00150025E0480D8900132032EF3D746
:1024F800045012000C6E66EC13F0A00E56EC13F0AC
:102508000C5056EC13F0095056EC13F062EC13F033
:102518000B0E0B6EB80E0A6E0A06D8A00B060A2818
:10252800FBE10B28D8B41200F7D7956A9450F80B42
:10253800946E8290000E016E020EF1EC12F0000E05
:10254800016E380EF1EC12F0000E016E0C0EF1EC7B
:1025580012F0000E016E010EF1EC12F01200026E84
:1025680066EC13F0D00E56EC13F0025056EC13F054
:102578006AEC13F0D10E56EC13F05CEC13F0036E1A
:1025880062EC13F003501200026E66EC13F0A00E1A
:1025980056EC13F0025056EC13F06AEC13F0A10E4F
:1025A80056EC13F05CEC13F0036E62EC13F003507E
:1025B8001200026E080E036E046AD89002340434C6
:1025C800046ED89002360150045CD8A002D00150A5
:1025D800045E032EF2D704501200026E01A002D04E
:1025E800828201D0829202C083FF82848294958E77
:1025F800828082928284829483BEFCD78290959E48
:102608001200010E0001F96FF28C30EC13F0F28E1B
:1026180099EC12F046EC13F03BEC13F0E0EC11F0FF
:102628001200036E66EC13F0D00E56EC13F0035054
:1026380056EC13F0025056EC13F062EC13F0120053
:10264800046E000E016E0350F1EC12F0010E016EE3
:102658000450F1EC12F01200D58CD59AD58ED5869F
:10266800000ED76E060ED66EF294F28A1200948689
:102678009488280EC66E310EC86EC79CC78E9E966B
:10268800A19612000F0EC16E1E0E936EF19E815020
:10269800E009816E1200EB2FF72FDB2FDF2FEF2FD2
:1026A800D72FF32F016E01C0C9FF72EC13F012008F
:1026B8006EEC13F076EC13F0C9501200C58472EC7E
:1026C80013F01200C58072EC13F01200C58272EC90
:1026D80013F01200C58672EC13F012009EA6FED706
:0C26E8009E961200C58AC588120001FFF2
:102E5C00002020202044443A4D4D3A5959204461D9
:102E6C007920202020002020202048483A4D4D3A3F
:102E7C00414D2F504D20202020004576656E74204A
:102E8C004C696D6974205265616368656400232028
:102E9C0056494557494E47204556454E54532E2EBC
:102EAC002E00232056494557494E47204556454E3E
:102EBC0054532E2E00232053544F52454420455634
:102ECC00454E54532E2E002020202048483A4D4D7C
:102EDC003A53532020202000202020202020202086
:102EEC0020202020202020200054696D652069734B
:102EFC002075706461746564004461746520697345
:102F0C0020757064617465640045786973746564D8
:102F1C002E2E2E2E20202020004576656E742073D8
:102F2C00746F7265642E2E2E005345542F564945EE
:102F3C0057204556454E54004576656E7420616C9D
:102F4C007265616479002320564945575F455645A3
:102F5C004E5453005345542054494D452F4441542D
:102F6C0045004E4F204556454E54532E2E2E0020D4
:102F7C004E4F204556454E54532000564945572038
:102F8C004556454E00534554204556454E54002059
:102F9C005072657373656420005345542054494D39
:102FAC004500534554204441544500656E74657288
:102FBC006564004556454E54200054494D4520004B
:102FCC004441544520004B6579200020534100209A
:102FDC005745002054480020414D0020504D002002
:102FEC004D4F002046520020535500205455003AB6
:042FFC00002A0000A7
:00000001FF
