:0400000007EF00F016
:100008005982B4ED11F0DDEF10F00001EB6B000E3A
:10001800D86F010ED76F20042110D8A4F6D022C0C3
:1000280001F023C002F0000E046E0A0E036EE6EC27
:100038000FF00150096E000E78EC12F00001EB2B66
:1000480022C001F023C002F0000E046E0A0E036EF7
:1000580014EC11F00150096E0001EB5178EC12F02C
:100068000001EB2B24C001F025C002F0000E046E45
:100078000A0E036EE6EC0FF00150096E0001EB5119
:1000880078EC12F00001EB2B24C001F025C002F03F
:10009800000E046E0A0E036E14EC11F00150096E86
:1000A8000001EB5178EC12F00001EB2B26C009F0AF
:1000B800EB5178EC12F00001EB2B010EC2EC12F0C0
:1000C800286E000EC2EC12F0296E29500A0DF3CFEB
:1000D8002AF0F4CF2BF028502A240001DF6F000EFD
:1000E8002B20E06F030EC2EC12F0286E020EC2EC59
:1000F80012F0296E29500A0DF3CF2AF0F4CF2BF015
:1001080028502A240001E16F000E2B20E26F040E14
:10011800C2EC12F0DFC001F0E0C002F0000E046E85
:100128000A0E036EE6EC0FF00150300F0001C36FAA
:10013800DFC001F0E0C002F0000E046E0A0E036E8C
:1001480014EC11F00150300F0001C46F3A0EC56F66
:10015800E1C001F0E2C002F0000E046E0A0E036E68
:10016800E6EC0FF00150300F0001C66FE1C001F05E
:10017800E2C002F0000E046E0A0E036E14EC11F0D9
:100188000150300F0001C76F200EC86F500EC96FA5
:100198004D0ECA6FCB6BE40E096E2E0E0A6E095017
:1001A8000A10D8A4000E0B6E800E0C6E80EC11F0B5
:1001B800E40E096E2E0E0A6E09500A10D8A4000E1D
:1001C8000B6EC00E0C6E80EC11F0C10E096E2E0E77
:1001D8000A6E09500A10D8A4000E0B6E800E0C6E21
:1001E80080EC11F0C30E096E0A6A0950D8A4200EDB
:1001F8000B6EC00E0C6E80EC11F0000E0001BE6F8D
:10020800000EBD6FBD4BBE2BFDD7000EEA6F000E72
:10021800E96FB5D0E951050DF3CFEBF0EB51040FC1
:10022800C2EC12F0286E28500001D96FDA6BEB2966
:10023800C2EC12F0286E0001EB51C2EC12F0296EEC
:1002480029500A0DF3CF2AF0F4CF2BF028502A2496
:100258000001DB6F000E2B20DC6FEB51030FC2ECAB
:1002680012F0286E0001EB51020FC2EC12F0296E59
:1002780029500A0DF3CF2AF0F4CF2BF028502A2466
:100288000001DD6F000E2B20DE6F2650D95DDA519C
:10029800800A286E2750800A2858D8A06ED0D951D5
:1002A800265C2750800A286EDA51800A2858D8B070
:1002B8000ED0E9C00DF0EAC00EF0EBC00FF0106AE6
:1002C80020C011F021C012F059EC0FF062D022507A
:1002D800DB5DDC51800A286E2350800A2858D8A09C
:1002E8004CD0DB51225C2350800A286EDC51800AF6
:1002F8002858D8A0DED72450DD5DDE51800A286E4C
:100308002550800A2858D8A038D0DD51245C2550C3
:10031800800A286EDE51800A2858D8A0CAD7000E55
:10032800D86F000ED76F440E096E2F0E0A6E095053
:100338000A10D8A4000E0B6E800E0C6E80EC11F023
:10034800150E096E2F0E0A6E09500A10D8A4000E59
:100358000B6EC00E0C6E80EC11F0000E0001E86F01
:10036800000EE76FE8BF06D0880EE75D130EE85968
:10037800D8B00FD0E74BE82BF5D7E94BEA2B205044
:10038800E95DEA51800A286E2150800A2858D8A0D1
:1003980041D70001D751D811D8B41200E951050D41
:1003A800F3CFEBF022C001F023C002F0000E046E80
:1003B8000A0E036EE6EC0FF00150096E0001EB51D6
:1003C80078EC12F00001EB2B22C001F023C002F000
:1003D800000E046E0A0E036E14EC11F00150096E43
:1003E8000001EB5178EC12F00001EB2B24C001F076
:1003F80025C002F0000E046E0A0E036EE6EC0FF044
:100408000150096E0001EB5178EC12F00001EB2B62
:1004180024C001F025C002F0000E046E0A0E036E1F
:1004280014EC11F00150096E0001EB5178EC12F058
:100438000001EB2B26C009F0EB5178EC12F000011B
:10044800EB2B250E096E2F0E0A6E09500A10D8A440
:10045800000E0B6E800E0C6E80EC11F00001E9515D
:10046800050DF3CFEBF0EB29C2EC12F0286E00017A
:10047800EB51C2EC12F0296E29500A0DF3CF2AF085
:10048800F4CF2BF028502A240001E36F000E2B2014
:10049800E46FEB51030FC2EC12F0286E0001EB5130
:1004A800020FC2EC12F0296E29500A0DF3CF2AF080
:1004B800F4CF2BF028502A240001E56F000E2B20E2
:1004C800E66FEB51040FC2EC12F0286E28500001C1
:1004D800C16FC26BE3C001F0E4C002F0000E046E0D
:1004E8000A0E036EE6EC0FF00150300F0001CD6FDD
:1004F800E3C001F0E4C002F0000E046E0A0E036EC1
:1005080014EC11F00150300F0001CE6F3A0ECF6F8E
:10051800E5C001F0E6C002F0000E046E0A0E036E9C
:10052800E6EC0FF00150300F0001D06FE5C001F08C
:10053800E6C002F0000E046E0A0E036E14EC11F011
:100548000150300F0001D16F200ED26F500ED36FC3
:100558004D0ED46FD56BE40E096E2E0E0A6E09503F
:100568000A10D8A4000E0B6E800E0C6E80EC11F0F1
:10057800E40E096E2E0E0A6E09500A10D8A4000E59
:100588000B6EC00E0C6E80EC11F0C10E096E2E0EB3
:100598000A6E09500A10D8A4000E0B6E800E0C6E5D
:1005A80080EC11F0CD0E096E0A6A0950D8A4200E0D
:1005B8000B6EC00E0C6E80EC11F0000E0001C06FC7
:1005C800000EBF6FBF4BC02BFDD7116E5250D8A481
:1005D8001CD0E40E096E2E0E0A6E09500A10D8A41B
:1005E800000E0B6E800E0C6E80EC11F0E40E096E9E
:1005F8002E0E0A6E09500A10D8A4000E0B6EC00EFB
:100608000C6E80EC11F0010E526E4BEC11F0A1EC67
:1006180010F03B506AE1060E3A5CD8B066D0CC0EBA
:10062800096E2F0E0A6E09500A10D8A4000E0B6E20
:10063800800E0C6E80EC11F0A90E096E0A6A095042
:10064800D8A4200E0B6E850E0C6E80EC11F0325083
:10065800020DF350EA0FD96EDA6ADECF0DF0DDCF66
:100668000EF00DC009F00EC00AF009500A10D8A407
:10067800000E0B6E8D0E0C6E80EC11F0C60E096E1E
:100688002F0E0A6E09500A10D8A4000E0B6EC00E69
:100698000C6E80EC11F0B20E096E0A6A0950D8A4EB
:1006A800200E0B6EC50E0C6E80EC11F05050D8A4C5
:1006B8000ED0E30E096E2F0E0A6E09500A10D8A448
:1006C800000E0B6ECD0E0C6E80EC11F066D1E70EAD
:1006D800096E2F0E0A6E09500A10D8A4000E0B6E70
:1006E800CD0E0C6E80EC11F058D13B5004E1060E93
:1006F8003A5CD8A048D13B5003E1080E3A5CD8B028
:1007080042D1C60E096E2F0E0A6E09500A10D8A4DF
:10071800000E0B6E800E0C6E80EC11F0B20E096E9E
:100728000A6A0950D8A4200E0B6E850E0C6E80EC58
:1007380011F05050D8A40ED0E30E096E2F0E0A6E99
:1007480009500A10D8A4000E0B6E8D0E0C6E80ECAA
:1007580011F00DD0E70E096E2F0E0A6E09500A101F
:10076800D8A4000E0B6E8D0E0C6E80EC11F0BF0E2F
:10077800096E2F0E0A6E09500A10D8A4000E0B6ECF
:10078800C00E0C6E80EC11F05550D8A40ED07B0E24
:10079800096E2F0E0A6E09500A10D8A4000E0B6EAF
:1007A800C60E0C6E80EC11F0F8D05550D8B4F5D0C8
:1007B80051EC0CF000018351050DF3CF4EF04E289B
:1007C800C2EC12F00D6E4E50C2EC12F00E6E0E50CE
:1007D8000A0DF3CF0FF0F4CF10F00D500F240001E5
:1007E800816F000E1020826F4E50030FC2EC12F082
:1007F8000D6E4E50020FC2EC12F00E6E0E500A0D26
:10080800F3CF0FF0F4CF10F00D500F2400017F6FDD
:10081800000E1020806F4E50040FC2EC12F00D6EC7
:100828000D5000017D6F7E6B81C001F082C002F027
:10083800000E046E0A0E036EE6EC0FF0300E012671
:10084800000E022201C00DF002C00EF00F6A0DC0AA
:1008580009F00EC00AF00FC00BF0C60E0C6E80EC4B
:1008680011F081C001F082C002F0000E046E0A0E81
:10087800036E14EC11F0300E0126000E022201C0A6
:100888000DF002C00EF00F6A0DC009F00EC00AF09C
:100898000FC00BF0C70E0C6E80EC11F0FB0E096E4A
:1008A8002F0E0A6E09500A10D8A4000E0B6EC80E3F
:1008B8000C6E80EC11F07FC001F080C002F0000ED9
:1008C800046E0A0E036EE6EC0FF0300E0126000EE1
:1008D800022201C00DF002C00EF00F6A0DC009F02F
:1008E8000EC00AF00FC00BF0C90E0C6E80EC11F0B0
:1008F8007FC001F080C002F0000E046E0A0E036E85
:1009080014EC11F0300E0126000E022201C00DF089
:1009180002C00EF00F6A0DC009F00EC00AF00FC039
:100928000BF0CA0E0C6E80EC11F0F30E096E2E0E51
:100938000A6E09500A10D8A4000E0B6ECB0E0C6E6E
:1009480080EC11F000017D517E11D8B40ED0E80E74
:10095800096E2F0E0A6E09500A10D8A4000E0B6EED
:10096800CC0E0C6E80EC11F018D0E40E096E2F0E30
:100978000A6E09500A10D8A4000E0B6ECC0E0C6E2D
:1009880080EC11F00AD03B5004E1080E3A5CD8A084
:1009980004D0000E3B6E000E3A6E000181513818EB
:1009A80016E182513918D8A412D07F5136180FE1B8
:1009B80080513718D8A40BD07D51341808E17E51E6
:1009C8003518D8A404D08180010E4F6E1CD04F0476
:1009D800D8A418D0512A040E516412D04F6A834B00
:1009E800842B83C001F084C002F055C003F0046A70
:1009F80014EC11F001C083F002C084F0516A03D0F6
:100A0800818001D08190040E1118D8A41200020E22
:100A1800586E12005550D8A41BD0520E096E2F0ED6
:100A28000A6E09500A10D8A4000E0B6E800E0C6EC8
:100A380080EC11F06E0E096E2F0E0A6E09500A1026
:100A4800D8A4000E0B6EC00E0C6E80EC11F0D8D13D
:100A58005250D8A467D1536A000E1A6E000E196E50
:100A680052D15350C2EC12F00F6E5350C2EC12F038
:100A7800106E10500A0DF3CF11F0F4CF12F00F5092
:100A88001124156E000E1220166E532A532A535045
:100A9800C2EC12F00F6E5350C2EC12F0106E1050F0
:100AA8000A0DF3CF11F0F4CF12F00F501124176E86
:100AB800000E1220186E532A532A5350C2EC12F01B
:100AC8000F6E0F50136E146A532A090E1902F3CFD2
:100AD8000FF0F4CF10F01A02F3501026FA0E0F247C
:100AE800D96E000E1020DA6E15C001F016C002F0A3
:100AF800000E046E0A0E036EE6EC0FF00150300F84
:100B0800DF6E090E1902F3CF0FF0F4CF10F01A02BE
:100B1800F3501026FB0E0F24D96E000E1020DA6E4B
:100B280015C001F016C002F0000E046E0A0E036E26
:100B380014EC11F00150300FDF6E090E1902F3CFDB
:100B48000FF0F4CF10F01A02F3501026FC0E0F2409
:100B5800D96E000E1020DA6E3A0EDF6E090E1902F9
:100B6800F3CF0FF0F4CF10F01A02F3501026FD0E59
:100B78000F24D96E000E1020DA6E17C001F018C0CD
:100B880002F0000E046E0A0E036EE6EC0FF0015040
:100B9800300FDF6E090E1902F3CF0FF0F4CF10F00B
:100BA8001A02F3501026FE0E0F24D96E000E1020E4
:100BB800DA6E17C001F018C002F0000E046E0A0EBB
:100BC800036E14EC11F00150300FDF6E090E19029C
:100BD800F3CF0FF0F4CF10F01A02F3501026FF0EE7
:100BE8000F24D96E000E1020DA6E200EDF6E13501F
:100BF8001410D8B411D0090E1902F3CF0FF0F4CFA6
:100C080010F01A02F3501026000E0F24D96E010EB0
:100C18001020DA6E500E10D0090E1902F3CF0FF023
:100C2800F4CF10F01A02F3501026000E0F24D96EDC
:100C3800010E1020DA6E410EDF6E090E1902F3CF95
:100C48000FF0F4CF10F01A02F3501026010E0F2403
:100C5800D96E010E1020DA6E4D0EDF6E090E1902E4
:100C6800F3CF0FF0F4CF10F01A02F3501026020E53
:100C78000F24D96E010E1020DA6EDF6AE40E096EB9
:100C88002E0E0A6E09500A10D8A4000E0B6E800EA4
:100C98000C6E80EC11F0E40E096E2E0E0A6E0950EF
:100CA8000A10D8A4000E0B6EC00E0C6E80EC11F06A
:100CB800AE0E096E2E0E0A6E09500A10D8A4000E48
:100CC8000B6E800E0C6E80EC11F0090E1902F3CF3A
:100CD8000FF0F4CF10F01A02F3501026FA0E0F247A
:100CE800116E000E1020126E11C009F012C00AF029
:100CF80009500A10D8A4200E0B6EC00E0C6E80ECA2
:100D080011F0194A1A2A55500F6E106A0F50195CC3
:100D18001A50800A116E1050800A1158D8A0A1D616
:100D2800010E526E5450310F0001BB6FBC6BE40EC4
:100D3800096E2E0E0A6E09500A10D8A4000E0B6E0A
:100D4800800E0C6E80EC11F0E40E096E2E0E0A6E09
:100D580009500A10D8A4000E0B6EC00E0C6E80EC61
:100D680011F09A0E096E2E0E0A6E09500A10D8A4B8
:100D7800000E0B6E800E0C6E80EC11F0BB0E096E2F
:100D88000A6A0950D8A4200E0B6EC00E0C6E80ECB7
:100D980011F0F30E096E2E0E0A6E09500A10D8A42F
:100DA800000E0B6EC10E0C6E80EC11F05450090D44
:100DB800FA0EF3240F6E000EF420106E0FC009F027
:100DC80010C00AF009500A10D8A4200E0B6EC20EEB
:100DD8000C6E80EC11F0020E5718D8A407D0542AD4
:100DE8005550545CD8A00CD0546A0AD05704D8A4E3
:100DF80007D05450D8A403D05504546E01D05406DB
:100E0800050E5718D8A412001FEC12F0020E586EE7
:100E1800536A526A120000017B517C11D8A43AD05F
:100E28004BEC11F0B2510A0DF350B325F00F426E9E
:100E3800B5510A0DF350B625F00F416EB8510A0DA1
:100E4800F350B925F00F406E5050D8A40ED0E30EE1
:100E5800096E2F0E0A6E09500A10D8A4000E0B6EE8
:100E6800CD0E0C6E80EC11F010D05004D8A40DD02B
:100E7800E70E096E2F0E0A6E09500A10D8A4000E4C
:100E88000B6ECD0E0C6E80EC11F0000E00017C6F25
:100E9800010E7B6F0A0E016E42505CEC12F0300FAF
:100EA80000018E6F0A0E016E4250D7EC12F0300F1F
:100EB80000018F6F3A0E906F0A0E016E41505CEC84
:100EC80012F0300F0001916F0A0E016E4150D7ECFD
:100ED80012F0300F0001926F3A0E936F0A0E016EF6
:100EE80040505CEC12F0300F0001946F0A0E016E56
:100EF8004050D7EC12F0300F0001956F966BD30E6F
:100F0800096E2E0E0A6E09500A10D8A4000E0B6E38
:100F1800800E0C6E80EC11F0F00E096E2E0E0A6E2B
:100F280009500A10D8A4000E0B6EC00E0C6E80EC8F
:100F380011F08E0E096E0A6A0950D8A4200E0B6EA5
:100F4800C40E0C6E80EC11F05050D8A40ED0E30EF5
:100F5800096E2F0E0A6E09500A10D8A4000E0B6EE7
:100F6800CD0E0C6E80EC11F010D05004D8A40DD02A
:100F7800E70E096E2F0E0A6E09500A10D8A4000E4B
:100F88000B6ECD0E0C6E80EC11F05704D8A405D072
:100F9800000E0001786F010E776F0001794B7A2BF4
:100FA800960E79197A11D8A40DD030503110D8A4E2
:100FB80002D0010E01D0000E306E316A000E7A6F39
:100FC800000E796F020E5718D8A40BD02E4A2F2A7C
:100FD800040E2E182F10D8A404D0000E2F6E000E69
:100FE8002E6E77517811D8B435D02E502F10D8A442
:100FF80008D05050D8A402D0010E01D0000E506E77
:1010080025D02E042F10D8A408D0402A3D0E401811
:10101800D8A41CD0010E406E19D0020E2E182F1025
:10102800D8A408D0412A3D0E4118D8A40FD0010EEB
:10103800416E0CD0030E2E182F10D8A407D0422AC8
:101048000D0E4218D8A402D0010E426E000E786F21
:10105800000E776F30503110D8B43DD02E502F107D
:10106800D8A40BD0CE0E036E200E1DEC13F0CF0EBD
:10107800036E200E1DEC13F02ED02E042F10D8A4D2
:101088000BD0CA0E036E200E1DEC13F0CB0E036EB0
:10109800200E1DEC13F01FD0020E2E182F10D8A40E
:1010A8000BD0C70E036E200E1DEC13F0C80E036E96
:1010B800200E1DEC13F00FD0030E2E182F10D8A4FD
:1010C8000AD0C40E036E200E1DEC13F0C50E036E7D
:1010D800200E1DEC13F0040E5718D8A480D050C071
:1010E8000DF0050E0E6ED8900D360E2EFCD70A0E9A
:1010F800016E4250D7EC12F00F6E0A0E016E42508C
:101108005CEC12F0106E1038F00B0F100D10400947
:101118004B6E0A0E016E4150D7EC12F00D6E0A0E9E
:10112800016E41505CEC12F00E6E0E38F00B0D1093
:101138003F6E0A0E016E4050D7EC12F00D6E0A0E8B
:10114800016E40505CEC12F00E6E0E38F00B0D1074
:101158003E6E4BC002F0020E0EEC13F03FC002F0E0
:10116800010E0EEC13F03EC002F0000E0EEC13F070
:10117800E40E096E2E0E0A6E09500A10D8A4000E4D
:101188000B6E800E0C6E80EC11F0E40E096E2E0EC4
:101198000A6E09500A10D8A4000E0B6EC00E0C6E11
:1011A80080EC11F0F50E096E2E0E0A6E09500A1029
:1011B800D8A4000E0B6EC10E0C6E80EC11F0000E60
:1011C800126E000E116E114A122A12BEFCD7880E3A
:1011D800115C130E1258D8A0F6D7030E586E050EE0
:1011E8005718D8A41200030E586E120000017B5144
:1011F8007C11D8A416D0A9510A0DF350AA25F00FD6
:101208004A6EAC510A0DF350AD25F00F496EAF513F
:101218000A0DF350B025F00F486E000E7C6F010EDA
:101228007B6F0A0E016E4A505CEC12F0300F000121
:10123800976F0A0E016E4A50D7EC12F0300F00017A
:10124800986F2D0E996F0A0E016E49505CEC12F0E2
:10125800300F00019A6F0A0E016E4950D7EC12F058
:10126800300F00019B6F2D0E9C6F0A0E016E4850C7
:101278005CEC12F0300F00019D6F0A0E016E4850B1
:10128800D7EC12F0300F00019E6F9F6B5D0E096E58
:101298002E0E0A6E09500A10D8A4000E0B6E800E8E
:1012A8000C6E80EC11F0F00E096E2E0E0A6E0950CD
:1012B8000A10D8A4000E0B6EC00E0C6E80EC11F054
:1012C800970E096E0A6A0950D8A4200E0B6EC10E3B
:1012D8000C6E80EC11F03250020DF350EA0FD96E0B
:1012E800DA6ADECF0DF0DDCF0EF00DC009F00EC0CA
:1012F8000AF009500A10D8A4000E0B6ECA0E0C6E24
:1013080080EC11F05704D8A405D0000E0001786FC6
:10131800010E776F0001794B7A2B960E79197A11A5
:10132800D8A40DD030503110D8A402D0010E01D06D
:10133800000E306E316A000E7A6F000E796F020E61
:101348005718D8A40AD0010E2E240D6E000E2F2097
:101358000E6E030E0D142E6E2F6A77517811D8B4C5
:1013680046D02E502F10D8A40CD0324A332A080E5B
:1013780032183310D8A436D0000E336E000E326EF9
:1013880031D02E042F10D8A414D0482A640E48183F
:10139800D8B4486A010E4824016E026A000E02227F
:1013A800000E046E630E036E14EC11F00150486ECB
:1013B80019D0020E2E182F10D8A408D0492A0D0EC5
:1013C8004918D8A40FD0010E496E0CD0030E2E1860
:1013D8002F10D8A407D04A2A200E4A18D8A402D021
:1013E800010E4A6E000E0001786F000E776F3050C4
:1013F8003110D8B43DD02E502F10D8A40BD0CA0E1F
:10140800036E200E1DEC13F0CB0E036E200E1DECA8
:1014180013F02ED02E042F10D8A40BD0C70E036EB5
:10142800200E1DEC13F0C80E036E200E1DEC13F0F9
:101438001FD0020E2E182F10D8A40BD0C40E036E86
:10144800200E1DEC13F0C50E036E200E1DEC13F0DC
:101458000FD0030E2E182F10D8A40AD0C20E036E78
:10146800200E1DEC13F0C10E036E200E1DEC13F0C0
:10147800040E5718D8A46FD00A0E016E4A50D7EC44
:1014880012F00D6E0A0E016E4A505CEC12F00E6EF0
:101498000E38F00B0D10476E0A0E016E4850D7EC4F
:1014A80012F00D6E0A0E016E48505CEC12F00E6ED2
:1014B8000E38F00B0D10456E0A0E016E4950D7EC30
:1014C80012F00D6E0A0E016E49505CEC12F00E6EB1
:1014D8000E38F00B0D10466E32C044F047C002F0D3
:1014E800040E0EEC13F046C002F0050E0EEC13F0DD
:1014F80045C002F0060E0EEC13F044C002F0030ED5
:101508000EEC13F0E40E096E2E0E0A6E09500A1046
:10151800D8A4000E0B6E800E0C6E80EC11F0E40E59
:10152800096E2E0E0A6E09500A10D8A4000E0B6E12
:10153800C00E0C6E80EC11F0050E096E2F0E0A6EAF
:1015480009500A10D8A4000E0B6EC10E0C6E80EC68
:1015580011F0030E586E050E5718D8A41200030E8A
:10156800586E120000017B517C11D8A44FD04BEC6F
:1015780011F0E40E096E2E0E0A6E09500A10D8A456
:10158800000E0B6E800E0C6E80EC11F0E40E096EEE
:101598002E0E0A6E09500A10D8A4000E0B6EC00E4B
:1015A8000C6E80EC11F00001B2510A0DF350B32516
:1015B800F00F4D6EB5510A0DF350B625F00F4C6E75
:1015C8005050D8A40ED0E30E096E2F0E0A6E0950A3
:1015D8000A10D8A4000E0B6ECD0E0C6E80EC11F024
:1015E80010D05004D8A40DD0E70E096E2F0E0A6E45
:1015F80009500A10D8A4000E0B6ECD0E0C6E80ECAC
:1016080011F0000E00017C6F010E7B6F0A0E016E57
:101618004D505CEC12F0300F0001A06F0A0E016E05
:101628004D50D7EC12F0300F0001A16F3A0EA26FA7
:101638000A0E016E4C505CEC12F0300F0001A36FE3
:101648000A0E016E4C50D7EC12F0300F0001A46F57
:10165800200EA56F5050D8B402D0500E01D0410EC4
:10166800A66F4D0EA76FA86B720E096E2E0E0A6E2E
:1016780009500A10D8A4000E0B6E800E0C6E80EC78
:1016880011F0F00E096E2E0E0A6E09500A10D8A439
:10169800000E0B6EC00E0C6E80EC11F0A00E096EE1
:1016A8000A6A0950D8A4200E0B6EC40E0C6E80EC8A
:1016B80011F0F00E096E2E0E0A6E09500A10D8A409
:1016C800000E0B6ECC0E0C6E80EC11F05704D8A4F3
:1016D80005D0000E0001786F010E776F0001794B7D
:1016E8007A2B960E79197A11D8A40DD03050311072
:1016F800D8A402D0010E01D0000E306E316A000E5F
:101708007A6F000E796F020E5718D8A410D0010E08
:101718002E24016E000E2F20026E000E046E030EA2
:10172800036EFEEC11F001C02EF002C02FF07751CD
:101738007811D8B437D02E502F10D8A408D05050D4
:10174800D8A402D0010E01D0000E506E26D02E046F
:101758002F10D8A40FD0010E4C24016E026A000E7F
:101768000222000E046E3C0E036E14EC11F00150C0
:101778004C6E13D0020E2E182F10D8A40ED0010EC6
:101788004D24016E026A000E0222000E046E0C0E39
:10179800036E14EC11F001504D6E000E0001786FCD
:1017A800000E776F30503110D8B42DD02E502F1036
:1017B800D8A40BD0CA0E036E200E1DEC13F0CB0E6E
:1017C800036E200E1DEC13F01ED02E042F10D8A48B
:1017D8000BD0C70E036E200E1DEC13F0C80E036E5F
:1017E800200E1DEC13F00FD0020E2E182F10D8A4C7
:1017F8000AD0C40E036E200E1DEC13F0C50E036E46
:10180800200E1DEC13F0040E5718D8A43FD0280E54
:10181800556014D0040E586E552A55C020F0216A20
:101828004DC022F0236A4CC024F0256A50C026F02F
:10183800276A09EC00F0040E586E28D0E40E096EF1
:101848002E0E0A6E09500A10D8A4000E0B6E800ED8
:101858000C6E80EC11F0860E096E2E0E0A6E095081
:101868000A10D8A4000E0B6EC00E0C6E80EC11F09E
:10187800000E2D6E000E2C6E2C4A2D2A2DBEFCD784
:10188800880E2C5C130E2D58D8A0F6D7050E5718C5
:10189800D8A41200040E586E12000001B2510A0DAD
:1018A800F3CF07F0F4CF08F0B3510726000E082253
:1018B800F00E0724386EFD0E0820396EB5510A0D5A
:1018C800F3CF07F0F4CF08F0B6510726000E082230
:1018D800F00E0724366EFD0E0820376E6CC007F038
:1018E800050E086ED8900732082EFCD707A004D042
:1018F800000E356E010E03D0000E356E000E346EEC
:10190800000E846F000E836F4E6A000E0C6E000E80
:101918000B6EAED00B50050DF3CF4EF04E28C2EC37
:1019280012F0076E4E50C2EC12F0086E08500A0D05
:10193800F3CF09F0F4CF0AF0075009240001896FAA
:10194800000E0A208A6F4E50030FC2EC12F0076E89
:101958004E50020FC2EC12F0086E08500A0DF3CF79
:1019680009F0F4CF0AF0075009240001876F000E30
:101978000A20886F4E50040FC2EC12F0076E075011
:101988000001856F866B3450855D8651800A076E2D
:101998003550800A0758D8A069D08551345C355035
:1019A800800A076E8651800A0758D8B005D00BC048
:1019B80083F00CC084F0120089C001F08AC002F0E4
:1019C800000E046E0C0E036E14EC11F001C007F04B
:1019D80002C008F038C001F039C002F0000E046EF1
:1019E8000C0E036E14EC11F00150075C0850800ACD
:1019F800096E0250800A0958D8A038D038C001F0C2
:101A080039C002F0000E046E0C0E036E14EC11F0D7
:101A180001C007F002C008F089C001F08AC002F0D6
:101A2800000E046E0C0E036E14EC11F00150075CEE
:101A38000850800A096E0250800A0958D8A0B7D702
:101A480036500001875D8851800A076E3750800A3A
:101A58000758D8A00BD08751365C3750800A076EDC
:101A68008851800A0758D8B01200A1D70B4A0C2A0F
:101A78005550076E086A07500B5C0C50800A096EB7
:101A88000850800A0958D8B0120044D7020E5718D7
:101A9800D8A405D0000E0001706F000E07D05704BF
:101AA800D8A405D0000E0001706F010E6F6F000101
:101AB8006F517011D8A442D0E40E096E2E0E0A6E32
:101AC80009500A10D8A4000E0B6E800E0C6E80EC24
:101AD80011F0E40E096E2E0E0A6E09500A10D8A4F1
:101AE800000E0B6EC00E0C6E80EC11F0FD0E096E30
:101AF8002F0E0A6E09500A10D8A4000E0B6E800E25
:101B08000C6E80EC11F0910E096E2F0E0A6E0950C2
:101B18000A10D8A4000E0B6E820E0C6E80EC11F029
:101B2800390E096E2F0E0A6E09500A10D8A4000E3D
:101B38000B6EC20E0C6E80EC11F045D06F51701117
:101B4800D8B441D0E40E096E2E0E0A6E09500A1060
:101B5800D8A4000E0B6E800E0C6E80EC11F0E40E13
:101B6800096E2E0E0A6E09500A10D8A4000E0B6ECC
:101B7800C00E0C6E80EC11F0910E096E2F0E0A6EDD
:101B880009500A10D8A4000E0B6E820E0C6E80EC61
:101B980011F0FD0E096E2F0E0A6E09500A10D8A416
:101BA800000E0B6EC00E0C6E80EC11F0870E096EE5
:101BB8002F0E0A6E09500A10D8A4000E0B6EC20E22
:101BC8000C6E80EC11F0040E5718D8A409D000014F
:101BD8006F517011D8A402D0070E01D0080E586EAC
:101BE800050E5718D8A41200020E586E1200020EE5
:101BF8005718D8A405D0000E0001766F010E07D043
:101C08005704D8A405D0000E0001766F000E756F3A
:101C1800000175517611D8A442D0E40E096E2E0E3B
:101C28000A6E09500A10D8A4000E0B6E800E0C6EB6
:101C380080EC11F0E40E096E2E0E0A6E09500A109F
:101C4800D8A4000E0B6EC00E0C6E80EC11F0FD0EC9
:101C5800096E2F0E0A6E09500A10D8A4000E0B6EDA
:101C6800800E0C6E80EC11F0A50E096E2F0E0A6E18
:101C780009500A10D8A4000E0B6E820E0C6E80EC70
:101C880011F0AE0E096E2F0E0A6E09500A10D8A474
:101C9800000E0B6EC20E0C6E80EC11F045D0755123
:101CA8007611D8B441D0E40E096E2E0E0A6E095092
:101CB8000A10D8A4000E0B6E800E0C6E80EC11F08A
:101CC800E40E096E2E0E0A6E09500A10D8A4000EF2
:101CD8000B6EC00E0C6E80EC11F0A50E096E2F0E67
:101CE8000A6E09500A10D8A4000E0B6E820E0C6EF4
:101CF80080EC11F0FD0E096E2F0E0A6E09500A10C5
:101D0800D8A4000E0B6EC00E0C6E80EC11F0AE0E57
:101D1800096E2F0E0A6E09500A10D8A4000E0B6E19
:101D2800C20E0C6E80EC11F0040E5718D8A409D01E
:101D3800000175517611D8B402D0060E01D0050EF7
:101D4800586E050E5718D8A41200020E586E1200CD
:101D5800020E5718D8A404D0000E3D6E010E06D00E
:101D68005704D8A404D0000E3D6E000E3C6E3C50C3
:101D78003D10D8A442D0E40E096E2E0E0A6E09500A
:101D88000A10D8A4000E0B6E800E0C6E80EC11F0B9
:101D9800E40E096E2E0E0A6E09500A10D8A4000E21
:101DA8000B6EC00E0C6E80EC11F0FD0E096E2F0E3E
:101DB8000A6E09500A10D8A4000E0B6E800E0C6E25
:101DC80080EC11F0600E096E2F0E0A6E09500A1091
:101DD800D8A4000E0B6E820E0C6E80EC11F0350E3E
:101DE800096E2F0E0A6E09500A10D8A4000E0B6E49
:101DF800C20E0C6E80EC11F045D03C503D10D8B4AA
:101E080041D0E40E096E2E0E0A6E09500A10D8A4AD
:101E1800000E0B6E800E0C6E80EC11F0E40E096E55
:101E28002E0E0A6E09500A10D8A4000E0B6EC00EB2
:101E38000C6E80EC11F0600E096E2F0E0A6E0950C0
:101E48000A10D8A4000E0B6E820E0C6E80EC11F0F6
:101E5800FD0E096E2F0E0A6E09500A10D8A4000E46
:101E68000B6EC00E0C6E80EC11F0350E096E2F0E45
:101E78000A6E09500A10D8A4000E0B6EC20E0C6E22
:101E880080EC11F0040E5718D8A408D03C503D102F
:101E9800D8B402D0040E01D0030E586E050E5718A0
:101EA800D8A41200010E586E120011C01DF012C005
:101EB8001EF07DD01D04050DF3CF1FF01F28C2ECC6
:101EC80012F0136E1F50C2EC12F0146E14500A0D6B
:101ED800F3CF15F0F4CF16F013501524196E000E39
:101EE80016201A6E1F50030FC2EC12F0136E1F500B
:101EF800020FC2EC12F0146E14500A0DF3CF15F055
:101F0800F4CF16F0135015241B6E000E16201C6E0D
:101F18001F50040FC2EC12F0136E1350176E186A9C
:101F280019C001F01AC002F0000E046E0A0E036E0A
:101F3800E6EC0FF00150096E1F5078EC12F019C052
:101F480001F01AC002F0000E046E0A0E036E14ECC3
:101F580011F00150096E1F2878EC12F01BC001F037
:101F68001CC002F0000E046E0A0E036EE6EC0FF0C1
:101F78000150096E1F50020F78EC12F01BC001F0DF
:101F88001CC002F0000E046E0A0E036E14EC11F071
:101F98000150096E1F50030F78EC12F017C009F0BA
:101FA8001F50040F78EC12F01D06D8A01E061D5015
:101FB8000D5C0E50800A136E1E50800A1358D8B05C
:101FC800120078D7066A04AE06D0036C041ED8B097
:101FD800042A010E066E02AE06D0016C021ED8B0AD
:101FE800022A010E061A000E086E000E076E035034
:101FF8000410D8B41CD0010E056E04D0D890033656
:102008000436052A04AEFAD7D890073608360350A6
:10201800015C04500258D8A005D00350015E04505A
:10202800025A0780D89004320332052EEDD70650A5
:10203800D8B404D0076C081ED8B0082A07C001F02D
:1020480008C002F01200FFEC12F0010E3EEC12F094
:10205800576E5804D8A404D05750E9EC02F0F5D7CD
:10206800020E5818D8A403D0ACEC0EF0EED7030E2D
:102078005818D8A403D0FBEC0DF0E7D7040E581875
:10208800D8A403D04AEC0DF0E0D7050E5818D8A410
:1020980003D00FEC07F0D9D7060E5818D8A403D0F0
:1020A800FAEC08F0D2D7070E5818D8A403D0B6EC2B
:1020B8000AF0CBD7080E5818D8A4C7D70EEC05F0ED
:1020C800C4D7819A818C818E81B202D0010E120010
:1020D80081B402D0040E120081B602D0070E12009D
:1020E80081B802D00A0E1200818A819C818E81B249
:1020F80002D0020E120081B402D0050E120081B681
:1021080002D0080E120081B802D00B0E1200818A8C
:10211800818C819E819E81B202D0030E120081B40F
:1021280002D0060E120081B602D0090E120081B844
:1021380002D00C0E1200FF0E1200040EADEC12F0CD
:102148000001686F050EADEC12F00001696F060E14
:10215800ADEC12F000016A6F030EADEC12F0000155
:102168006B6F68390F0B0F0B300FA96F68510F0B8E
:10217800300FAA6F2D0EAB6F69390F0B010B300FA3
:10218800AC6F69510F0B300FAD6F2D0EAE6F6A3902
:102198000F0B0F0B300FAF6F6A510F0B300FB06F73
:1021A800B16B6BC004F0070E04160450326E336A2C
:1021B8001200900EF66E260EF76E000EF86E00EE08
:1021C800ECF010EE0EF00900F5CFEEFFE550E1500F
:1021D800FAE1E40EF66E260EF76E000EF86E0900B0
:1021E800F5CF56F00900F5CF57F000EEFAF011EEF2
:1021F8000EF0EE6AE550E150FCE1E250FAE100EE43
:1022080060F05D0EEE6AE806FDE100EE2EF0280EA5
:10221800EE6AE806FDE159905992000127EF10F0A7
:10222800066A02AE06D0016C021ED8B0022A010E60
:10223800066E04AE04D0036C041ED8B0042A035002
:102248000410D8B418D0010E056E04D0D890033607
:102258000436052A04AEFAD70350015C045002582C
:10226800D8A004D00350015E0450025AD89004321A
:102278000332052EF1D70650D8B404D0016C021EE3
:10228800D8B0022A01C001F002C002F01200020E0A
:10229800ADEC12F000016C6F010EADEC12F0000114
:1022A8006D6F000EADEC12F000016E6F6C390F0B04
:1022B800030B300FB26F6C510F0B300FB36F3A0E28
:1022C800B46F6D390F0B0F0B300FB56F6D510F0BCE
:1022D800300FB66F3A0EB76F6E390F0B0F0B300F0A
:1022E800B86F6E510F0B300FB96FBA6B6C39E8428B
:1022F800070B010B506E1200000E016E0C50EBEC38
:1023080012F01AD0010E016E09C0F6FF0AC0F7FFDD
:102318000BC0F8FFF8BA03D00800F55005D0F6CF87
:10232800E9FFF7CFEAFFEF50EBEC12F0010E0926B8
:10233800000E0A22000E0B2209C0F6FF0AC0F7FFA2
:102348000BC0F8FFF8BA03D00800F55005D0F6CF57
:10235800E9FFF7CFEAFFEF500009D8B41200D2D74F
:102368000600F2A421D0080ED624D66E000ED7207F
:10237800D76E0001714B722B200E711914E14E0EAD
:102388007219D8A410D03A4A3B2A3B5004E1080EEF
:102398003A5CD8A004D0000E3B6E000E3A6E000ED8
:1023A800726F000E716FF29459921100000EADEC2D
:1023B80012F0046E04508009026E000E0EEC13F049
:1023C800020EADEC12F0046E0450AF0B026E020E5A
:1023D8000EEC13F0930E026E070E0EEC13F0000EC7
:1023E800ADEC12F0046E04507F0B026E000E0EEC82
:1023F80013F0120003500410D8B418D0010E056E63
:1024080004D0D89003360436052A04AEFAD7035010
:10241800015C04500258D8A004D00350015E045057
:10242800025AD89004320332052EF1D701C001F0C8
:1024380002C002F01200000E016E010EEBEC12F069
:10244800B70E096E2F0E0A6E09500A10D8A4000E96
:102458000B6E800E0C6E80EC11F0A10E0E6E200E2D
:102468000D6E0D06D8A00E060D28FBE10E28D8B477
:102478001200F7D7016E0104D8A412D065EC10F051
:10248800436E4328D8B406D05650D8B403D0566A01
:10249800435012004328D8A409D0010E566E06D026
:1024A8000150D8A403D065EC10F01200FF0E120002
:1024B800026E046A0150D8B415D0010E036E03D021
:1024C800D8900136032A01AEFBD7D89004360150C4
:1024D800025CD8A003D00150025E0480D89001327B
:1024E800032EF3D7045012000C6E5FEC13F0A00E0D
:1024F8004FEC13F00C504FEC13F009504FEC13F065
:102508005BEC13F00B0E0B6EB80E0A6E0A06D8A021
:102518000B060A28FBE10B28D8B41200F7D7956AF6
:102528009450F80B946E8290000E016E020EEBEC44
:1025380012F0000E016E380EEBEC12F0000E016E78
:102548000C0EEBEC12F0000E016E010EEBEC12F02B
:102558001200026E5FEC13F0D00E4FEC13F0025035
:102568004FEC13F063EC13F0D10E4FEC13F055EC75
:1025780013F0036E5BEC13F003501200026E5FEC75
:1025880013F0A00E4FEC13F002504FEC13F063EC75
:1025980013F0A10E4FEC13F055EC13F0036E5BEC47
:1025A80013F003501200026E080E036E046AD890EE
:1025B80002340434046ED89002360150045CD8A06A
:1025C80002D00150045E032EF2D704501200026EAE
:1025D80001A002D0828201D0829202C083FF82844D
:1025E8008294958E828082928284829483BEFCD764
:1025F8008290959E1200010E586EF28C29EC13F011
:10260800F28E93EC12F03FEC13F034EC13F0DAECAA
:1026180011F01200036E5FEC13F0D00E4FEC13F0C4
:1026280003504FEC13F002504FEC13F05BEC13F037
:102638001200046E000E016E0350EBEC12F0010E56
:10264800016E0450EBEC12F01200D58CD59AD58EA1
:10265800D586000ED76E060ED66EF294F28A120058
:1026680094869488280EC66E310EC86EC79CC78E95
:102678009E96A19612000F0EC16E1E0E936EF19ECD
:102688008150E009816E1200EB2FF72FDB2FDF2F2F
:10269800EF2FD72FF32F016E01C0C9FF6BEC13F09A
:1026A800120067EC13F06FEC13F0C9501200C584E8
:1026B8006BEC13F01200C5806BEC13F01200C582AE
:1026C8006BEC13F01200C5866BEC13F012009EA69B
:0E26D800FED79E961200C58AC588120001FF2B
:102E5C00002020202044443A4D4D3A5959204461D9
:102E6C007920202020002020202048483A4D4D3A3F
:102E7C00414D2F504D20202020004576656E74204A
:102E8C004C696D6974205265616368656400232028
:102E9C0056494557494E47204556454E54532E2EBC
:102EAC002E00232056494557494E47204556454E3E
:102EBC0054532E2E00232053544F52454420455634
:102ECC00454E54532E2E002020202048483A4D4D7C
:102EDC003A53532020202000202020202020202086
:102EEC0020202020202020200054696D652069734B
:102EFC002075706461746564004461746520697345
:102F0C0020757064617465640045786973746564D8
:102F1C002E2E2E2E20202020004576656E742073D8
:102F2C00746F7265642E2E2E005345542F564945EE
:102F3C0057204556454E54004576656E7420616C9D
:102F4C007265616479002320564945575F455645A3
:102F5C004E5453005345542054494D452F4441542D
:102F6C0045004E4F204556454E54532E2E2E0020D4
:102F7C004E4F204556454E54532000564945572038
:102F8C004556454E00534554204556454E54002059
:102F9C005072657373656420005345542054494D39
:102FAC004500534554204441544500656E74657288
:102FBC006564004556454E54200054494D4520004B
:102FCC004441544520004B6579200020534100209A
:102FDC005745002054480020414D0020504D002002
:102FEC004D4F002046520020535500205455003AB6
:042FFC00002A0000A7
:00000001FF
